:400000000080002011000000090600000906000008B5044B1A6803F53F5302331A6000F0FBFA00BFFA46004010B5054C237833B9044B13B10448AFF300800123237010BD64
:400040005081FF1F00000000C00E0000084B10B51BB108490848AFF300800848036803B910BD074B002BFBD0BDE81040184700BF000000005481FF1FC00E0000C880FF1F56
:400080000000000008B500F061FE334B1870A0F12003DBB25E2B0ED8304B1B684E2B0ADC00F06AFE2D4A1368D1182B48007808710133136008BD7F2814D1284B1B68002B71
:4000C00010DD082000F058FE202000F055FE082000F052FE214A1368013B1360134400221A7108BD0D2832D11D4800F051FE1A4B187800F041FE194B1A681A440D21117168
:4001000000225A6506E0154AD118087981F8580001335365114B5B6D4E2BF4DD00220F4BC3F8A82007E00D4AD11891F8AC0008710133C2F8A830094BD3F8A8304E2BF2DD2B
:400140000022064B1A600122064B1A6008BD072000F012FE08BD00BFC682FF1F6C81FF1FC40E00002083FF1F08B5124800F010FE114800F00DFE114800F00AFE104800F02E
:4001800007FE104800F004FE0F4800F001FE0F4800F0FEFD0E4800F0FBFD0E4800F0F8FD0D4800F0F5FD0D4800F0F2FD0C4800F0EFFD08BDC80E0000180F0000380F00004B
:4001C0004C0F00006C0F00008C0F0000B80F0000E80F000034100000501000007410000088100000274B93F85830572B01D0772B03D10022244B1A7006E0522B01D0722BD6
:4002000002D10122204B1A701E4B93F86120A2F1300193F86220303A42EA01121B490A7093F85A101A4A117093F85C20A2F1300193F85D20303A42EA011292B215490A8084
:4002400083F8FC2093F85F10134A117009225A6510E0A3F108010B4A114481F8FC00D91F11440D2081F8FC00A3F108000B49087001335365034A536D1A4492F858000D28B4
:40028000E7D170476C81FF1FC782FF1F7383FF1FC882FF1F1C83FF1FC582FF1F7583FF1F08B5314B1B78312B06D1304A117853780B432F4A137005E02C4A117893780B4355
:4002C0002B4A13702B4B1B7883B92B4A12782B492748007800F0BCFB00F088FC10F0020FFAD000F09FFC052000F0B0FC214B1B78012B37D10023012220491D48007800F076
:40030000A7FB00F073FC10F0020FFAD000F08AFC052000F09BFC0023194A127819491448007800F0FBFB00F061FC10F0010FFAD000F078FC0022144B5A6507E0114AD05C5A
:4003400000F01AFD104A536D013353650C4B1A780D4B5B6D9A42F1DC0C4800F019FD00220B4B1A6008BD00BFC882FF1FCC80FF1FC482FF1FC782FF1F7583FF1F6882FF1F33
:400380007383FF1F2483FF1F6C81FF1F8C1000002083FF1F08B500F0CBFC00F0DDF9FFF7E3FE084800F020FD62B6074B1B68002BFBD0FFF717FFFFF773FF0022024B1A604E
:4003C000F3E700BF850000002083FF1FFEE700BFF0B40022174611E050F82760F3B226F0FF0608E001EB420511F812406D78A5550132013BDBB2002BF4D10137132FEBD958
:40040000F0BC7047064B1B78DBB203F00701054A11701B09013213704422034B1A707047CF0100496E5800407658004008B50A46002100F03CFD08BD38B53322244B1A80BA
:40044000182202331A70022203F27E231A7008224FF040231A70032103F5007319701D4B1B78DBB21C490B701C4B1A8041F25122023B1A80002419250CE0194B1B7803F0B3
:40048000010343EA440404F003044FF4F07000F0C7FC013D0DB1032CEFD115B90320FFF795FF104B4FF480721A8007221A7000220D490A704820023108701A700222033B3E
:4004C0001A700A4A137843F00103137038BD00BF8040004008010049A146004022420040254200400440004006400040A243004008B500F0D1FC08BD38B572B6334A1378D6
:4005000043F00403137000240CE0314D630019194A0011462A44084691882858FFF786FF0134E4B2072CF0D900240BE02849A3001819420088180622416B006BFFF7D8FF61
:400540000134E4B2002CF1D022494FF09040FFF73FFF214A137843F0020313701032137843F0020313701D4C237843F040032370A2F58632513A137843F010031370082277
:4005800017491848FFF7B4FF0A2217491748FFF7AFFF082216491748FFF7AAFF164A137843F008031370154D61232B70FFF744FF81232B700122124B1A70FFF723FF0E22C5
:4005C00021461048FFF794FF38BD00BFE8460040901000005000004803500140A0430040FC0300480251004004040048C051004010040048125100402243004000480040FB
:4006000004000840B043004008B500F019FC03680C2B00D1FEE7FEE708B5104E104D16E029686B68AC68002204E051F8040B43F8040B0432A242F8D1E868002203E0002155
:4006400043F8041B04328242F9D11035013E002EE6D100F0FBFBFFF79DFEFEE701000000F010000008B5104A104B1A60104A136843F40073136000230AE0032B03D80D4A4B
:4006800052F8231000E00C490C4A42F8231001332F2BF2D90A4B1A780A4B1A70074A0A4B1A60FFF729FF08BD0004FA050CED00E014ED00E000000000090600000080FF1F39
:4006C000BC760040C080FF1F08ED00E038B50222114B1A7081220E3B1A70082202331A700F2511331D70002401331C704FF400420A4B1A600721284600F0D2FA08492846B1
:4007000000F0BAFA1022074B1A70074B1C70074B1C70074B1C7038BDD649004080E100E0810700007683FF1F7A83FF1F8283FF1F7883FF1F08B500F07BFB064A137843F0B1
:40074000040313701032137843F00403137000F073FB08BDA543004008B5074B1B7823B9FFF7B4FF0122044B1A70FFF7E3FF4FF40042024B1A6008BDC082FF1F00E100E0ED
:4007800038B5A54B1C78A54B1B7813F0400F00F03A81E4B214F0010F00F01D819F4B1B78453B052B00F21481DFE813F006008200120112010600DF0004F0DF0504F00A0425
:4007C000082C42D1954B1B78DBB2452B35D1944B1B7813F0FF0F10D0924B1B681B78DBB2914A137004228C4B1A7001228F4B1A7046228A4B1A702C46EDE08D4B1B7813F079
:40080000020F0DD08B4A137843F00A0313706022824B1A704FF40042874B1A602C46DAE0864A137843F0100313701022844B1A700422023B1A702C46CDE00022764B1A70A9
:400840004A22764B1A702C46C5E00A2C2BD1794A137843F0A0031370754B1B7813F0020F14D06E4B1B7813F0080F01D0092300E00A23704A11780B4313706022674B1A7044
:400880004FF400426C4B1A602C46A4E06B4A137843F0100313701022694B1A700422023B1A702C4697E0002000F0CEF92C4692E014F0020F36D15D4B1A78D2B2584B1B7872
:4008C000DBB29A4210D2594A1378DBB255490968CB5CDBB254490B7004214F4B197013780133DBB2137076E0514B1B7813F0020F0CD0504A137843F00A0313706022474B8F
:400900001A704FF400424C4B1A6064E04B4A137843F0100313701022494B1A700422023B1A7058E0424B1B7813F0020F0CD0414A137843F09A0313706022384B1A704FF4AA
:4009400000423D4B1A6046E03C4A137843F01003137010223A4B1A700422023B1A70354A137843F09003137035E0364A1378DBB2354908682C490978C9B2C15413780133D2
:40098000DBB213701278D2B2304B1B78DBB29A4203D21022204B1A701DE0254B1B7813F0020F0CD0234A137843F00903137060221A4B1A704FF400421F4B1A600BE01F4ACE
:4009C000137843F0100313700022134B1A7002E0002000F039F914F0200F1CD00F4B1B7813F0080F01D0012300E00223114A11780B431370114A137803F0EF031370102220
:400A0000064B1A7038BD054B1B7813F0100F02D11022024B1A7038BDD74900407683FF1F7983FF1F8483FF1FD84900407883FF1F8083FF1F7A83FF1F80E100E0D649004004
:400A4000D94900408283FF1F7C83FF1F8183FF1F002948D070B40C4626490978C9B2102906D12549097811F0080F11D1002112E020490978C9B260290CD14FF400451F49C9
:400A80000D601F4D297801F0F7012970002102E0012100E0022149BB4526164D2E700026184D2E70184D2A70184A1460184A1370134C227802F0FD0222704200D2B2154820
:400AC000027013F0010F06D012220B4B1A700422023B1A7002E00122074B1A704FF400420D4B1A6002E0022108467047084670BC704700BF7683FF1FD949004080E200E0AD
:400B00007A83FF1F7883FF1F7983FF1F8483FF1F8083FF1FD849004000E100E000294AD070B40C4627490978C9B2102906D12649097811F0080F11D1002112E021490978E2
:400B4000C9B260290CD14FF4004520490D60204D297801F0F7012970002102E0012100E0022159BB4926174D2E700026194D2E70194D2A70194A1460194A1370144C227818
:400B800002F0FE0222704200D2B242F001021548027013F0010F06D012220B4B1A700422023B1A7002E00122074B1A704FF400420D4B1A6002E0022108467047084670BC41
:400BC000704700BF7683FF1FD949004080E200E07A83FF1F8283FF1F8183FF1F7C83FF1F8083FF1FD849004000E100E04FF40042084B1A60084B1878C0B2084B1B7813F074
:400C0000400F01D040F004004FF40042044B1A60704700BF80E100E07A83FF1F7683FF1F00E100E04FF40043044A1360044A107800211170034A1360704700BF80E100E032
:400C40007A83FF1F00E100E001BE704710B5044605E0084B186800F0E3F8A4F50044B4F5004FF6D8034B586800FB04F000F0D8F810BD00BFDC80FF1F70B504460E46074B15
:400C80001D681F2802D90020FFF7DEFF04F01F04103455F8240045F8246070BD08ED00E038B504460D46072902D90020FFF7CCFF1F2C02D90020FFF7C7FF04F01F0000F18F
:400CC000604000F564406D01EDB2057038BD00BF7222084B1A70202203331A700622A3F5B1731A70472210331A7000224F331A70704700BF8865004010B500F099F804460D
:400D00000A4A137843F0200313700332137843F010031370A2F20312137843F01003137000F070F8204600F087F810BD9865004008B5054B1B7823B9FFF7CAFF0122024B93
:400D40001A70FFF7D9FF08BDC182FF1F084B1B78DBB213F0200F06D0064A1078C0B213F01E0F02D17047002070470020704700BF6B6500404B650040034B1B7813F0040F12
:400D8000FAD1024B18707047686400404864004038B5074B1B782BB938BDFFF7EDFF0134A4B201E005460024285D0028F5D138BDC182FF1F014B1B681864704708ED00E0DC
:400DC0004001C0B2014B1870704700BF00E400E00122014B1A60704700E100E00122014B1A60704780E100E010B50446FFF7F6FF2046FFF7DFFF0720FFF7E2FFFFF7E8FFE1
:400E000010BD00BF054A137843F0010313701032137843F001031370704700BFA24300400230800803D000BF01380046FCD17047EFF3108072B6704780F31088704700BF4F
:400E4000014B1868704700BF4C81FF1F0E4B70B51E460E4C0025E41AA410A54204D056F8253098470135F8E700F030F9084B094C1E46E41AA4100025A54204D056F8253086
:400E800098470135F8E770BDD8100000D8100000D8100000E010000010B5431E0A44914204D011F8014B03F8014FF8E710BD03460244934202D003F8011BFAE7704700001D
:400EC000000000000A0000000A0D20506C656173652074797065206120636F6D6D616E642E204120636F6D6D616E642077696C6C206C6F6F6B2073696D696C617220746FA6
:400F000020746865206578616D706C65732062656C6F772E0A0D00000A0D20572023205858204120596F7572206D65737361676520686572650000000A0D20412023205886
:400F4000582048204E4E0A0D000000000A0D205720666F72207772697465206F72205220666F722052656164000000000A0D20232064657465726D696E65732077686963B3
:400F80006820454550524F4D000000000A0D2058582064657465726D696E6573206D656D6F7279206C6F636174696F6E2028696E20686578290000000A0D204120666F72EC
:400FC000204153434949206F72204820666F7220415343494920656E636F64656420686578206279746573000A0D204E4E20666F72205245414420636F6D6D616E64732069
:4010000064657465726D696E6573206E756D626572206F662062797465732028696E206865782920746F20626520726561640A0D000000000A0D204578616D706C6573209B
:40104000676976656E2062656C6F770A0D0000000A0D205720312033312041204D617279206861642061206C6974746C65206C616D6200000A0D205220322033312048206B
:4010800033340A0D000000000A0D3E003E000000C84900401900205100405000F0510040100000000140001000140140000800400140000A004C01400002005001402000AA
:4010C00060520040F403004806004300F8B500BFF8BC08BC9E4670474D00000065060000F8B500BFF8BC08BC9E4670472900000000110000C880FF1F88000000380200005E
:4011000000000000500604000102030400303132335656000000E02EC05D00001800000000366E0100000000000000000000000000000000000000000000000000000000F1
:4011400000000000CA100000000000000000000000000000000000000000000000000000000000000000000000000000000000000000000000000000000000000000000095
:4011800000000000EC80FF1F0000000000000000000000000000000000000000000000000000000000000000000000000000000000000000000000000000000000000000A5
:4011C00000000000000000000000000000000000000000000000000000000000000000000000000000000000000000000000000000000000000000000000000000000000EF
:4012000000000000000000000000000000000000000000000000000000000000000000000000000000000000000000000000000000000000000000000000000000000000AE
:40124000000000000000000000000000000000000000000000000000000000000000000000000000000000000000000000000000000000000000000000000000000000006E
:40128000000000000000000000000000000000000000000000000000000000000000000000000000000000000000000000000000000000000000000000000000000000002E
:020000040003F7
:0200000480007A
:4000000001640040026500405D0801403509014004150140011701403A180140341901404F1A01403D1B0140024001400141014003420140024301400448014013490140FC
:40004000084C01400C4D01400850014002510140880F88728B3802080A150C130E0410031214130314131506160C17011F062302240A2614270128202B053010320F342084
:4000800037073A083B803E114032410446BC470E481C49FF4AFF4BFF4EF04F44500C5401580459045A045B045F0166C06A406B028414850C87138A038C6C8E118F0C9009B9
:4000C000921094709511960C970699209B039D119F0EA010A620A85CAA02AF08B130B21FB30FB660B880B902BB08BE40C001C604C9FFCA07CBFFCC40CD20CEF0CF05D00857
:40010000D804D904DA04DF01E040E1A8E240E3200010021003010608078109080B400D080F8010A012081508160418111D081E481F042104220823C0268027012A402CA0B0
:400140002E082F043020310832803608378139083B404001450846084701482050805240561457C05C205E485F01C0D7C23CC46ECAE8CCDECE0AD0E8D6F0E008E602E820E7
:40018000EA05E602000103010401050208010902110214011F012501290130013302350139203E0156025710580459045B045F0180068201830184018508860688088918E4
:4001C0008D198F04900692019407951997029A019B069D10A004A101A320A402A507A718A806A91FB120B208B407B71FBA20BB88BE04D804D904DF01001101080240040945
:400200000528081009010B100C040F1010A819201A081B041E8020012101228023112528280429082A022C042D08309032043680370139023A543D023E145E806E146F01F3
:4002400074A8761483049010A820AA04AB81C07EC22EC40ECA67CC9ECEEFD610E404E60200110433060C08220C33100F1230143F1A331C0C1E3320082404280C340F363097
:400280003A2058045F0180078111832684068573880289738E10912092089358940799429A089B259C04A001A206A601AA10AC06AE01B10CB208B303B410B607B770BE1460
:4002C000BF01C063C102C205C401C60EC70CC814C9FFCAFFCBFFCC62CDA0CEF0CF41D00CD418D604D804D904DA04DB04DF01E640E702E910EA30EB10ED10EE10EF1200066E
:4003000002080301040105C00728081509010B010C840D200F8010A81328148116081704180C1A011D401F242608275137113E164414450847444C044D80560857405E01B4
:40034000674A8321874088018A028C84900192149301940898049C109E02A0A8A129B521C0FFC2FFC4FECCA0CEE0D070D230D680D8B0E008E820EA053010CC109C103E1094
:400380009C10CE2096109C10840496109C10E6401302164074047B02841086409C109F02A004A302AA10AB02B302C430DC80DE20E010E640EAA01328150478107F408102D9
:4003C0008504C40EDE03104075028740884097809902AB28B010C408DE04E201E804000101010C010D01100111011C011D01000303C000008280000043000000007F7F0024
:4004000000000000830040808300830000000000000B0B0000000000000000000000000000000000000000000000000000000000000000000000000000000000000000005D
:40044000000000000000000000000000000000000000000000000000000000000000000000000000000000000000000000000000000000000000000000000000000000007C
:40048000000000000000000000000000000000000000000000000000000000000000000000000000000000000000000000000000000000000000000000000000000000003C
:4004C00000000000000000000000000000000000000000000000000000000000000000000000000000000000000000000000000000000000000000000000000000000000FC
:4005000000000000000000000000000000000000000000000000000000000000000000000000000000000000000000000000000000000000000000000000000000000000BB
:0200000490006A
:0400000000004005B7
:0200000490105A
:04000000BC90ACAF55
:0200000490303A
:0200000002A05C
:0200000490402A
:4000000000000000000000000000000000000000000000000000000000000000000000000000000000000000000000000000000000000000000000000000000000000000C0
:400040000000000000000000000000000000000000000000000000000000000000000000000000000000000000000000000000000000000000000000000000000000000080
:400080000000000000000000000000000000000000000000000000000000000000000000000000000000000000000000000000000000000000000000000000000000000040
:4000C0000000000000000000000000000000000000000000000000000000000000000000000000000000000000000000000000000000000000000000000000000000000000
:0200000490501A
:0C00000000012E16106900012E1D1309CE
:00000001FF